{
  "_format": "hh-sol-artifact-1",
  "contractName": "Daxiao",
  "sourceName": "contracts/Daxiao.sol",
  "abi": [
    {
      "inputs": [],
      "stateMutability": "nonpayable",
      "type": "constructor"
    },
    {
      "anonymous": false,
      "inputs": [
        {
          "indexed": true,
          "internalType": "address",
          "name": "sender",
          "type": "address"
        },
        {
          "indexed": false,
          "internalType": "uint256",
          "name": "amount",
          "type": "uint256"
        }
      ],
      "name": "Received",
      "type": "event"
    },
    {
      "anonymous": false,
      "inputs": [
        {
          "indexed": false,
          "internalType": "uint256",
          "name": "id",
          "type": "uint256"
        },
        {
          "indexed": false,
          "internalType": "uint256",
          "name": "betType",
          "type": "uint256"
        },
        {
          "indexed": false,
          "internalType": "uint256",
          "name": "betValue",
          "type": "uint256"
        },
        {
          "indexed": false,
          "internalType": "bytes32",
          "name": "requestId",
          "type": "bytes32"
        },
        {
          "indexed": false,
          "internalType": "uint256",
          "name": "amount",
          "type": "uint256"
        },
        {
          "indexed": false,
          "internalType": "address",
          "name": "player",
          "type": "address"
        },
        {
          "indexed": false,
          "internalType": "uint256",
          "name": "winAmount",
          "type": "uint256"
        },
        {
          "indexed": false,
          "internalType": "uint256",
          "name": "randomResult",
          "type": "uint256"
        },
        {
          "indexed": false,
          "internalType": "uint256",
          "name": "result1",
          "type": "uint256"
        },
        {
          "indexed": false,
          "internalType": "uint256",
          "name": "result2",
          "type": "uint256"
        },
        {
          "indexed": false,
          "internalType": "uint256",
          "name": "result3",
          "type": "uint256"
        },
        {
          "indexed": false,
          "internalType": "uint256",
          "name": "time",
          "type": "uint256"
        }
      ],
      "name": "Result",
      "type": "event"
    },
    {
      "anonymous": false,
      "inputs": [
        {
          "indexed": false,
          "internalType": "address",
          "name": "admin",
          "type": "address"
        },
        {
          "indexed": false,
          "internalType": "uint256",
          "name": "amount",
          "type": "uint256"
        }
      ],
      "name": "Withdraw",
      "type": "event"
    },
    {
      "inputs": [],
      "name": "admin",
      "outputs": [
        {
          "internalType": "address",
          "name": "",
          "type": "address"
        }
      ],
      "stateMutability": "view",
      "type": "function"
    },
    {
      "inputs": [],
      "name": "dice1",
      "outputs": [
        {
          "internalType": "uint256",
          "name": "",
          "type": "uint256"
        }
      ],
      "stateMutability": "view",
      "type": "function"
    },
    {
      "inputs": [],
      "name": "dice2",
      "outputs": [
        {
          "internalType": "uint256",
          "name": "",
          "type": "uint256"
        }
      ],
      "stateMutability": "view",
      "type": "function"
    },
    {
      "inputs": [],
      "name": "dice3",
      "outputs": [
        {
          "internalType": "uint256",
          "name": "",
          "type": "uint256"
        }
      ],
      "stateMutability": "view",
      "type": "function"
    },
    {
      "inputs": [],
      "name": "gameId",
      "outputs": [
        {
          "internalType": "uint256",
          "name": "",
          "type": "uint256"
        }
      ],
      "stateMutability": "view",
      "type": "function"
    },
    {
      "inputs": [
        {
          "internalType": "uint256",
          "name": "",
          "type": "uint256"
        }
      ],
      "name": "games",
      "outputs": [
        {
          "internalType": "uint256",
          "name": "id",
          "type": "uint256"
        },
        {
          "internalType": "uint256",
          "name": "betType",
          "type": "uint256"
        },
        {
          "internalType": "uint256",
          "name": "betValue",
          "type": "uint256"
        },
        {
          "internalType": "bytes32",
          "name": "requestId",
          "type": "bytes32"
        },
        {
          "internalType": "uint256",
          "name": "amount",
          "type": "uint256"
        },
        {
          "internalType": "address",
          "name": "player",
          "type": "address"
        }
      ],
      "stateMutability": "view",
      "type": "function"
    },
    {
      "inputs": [],
      "name": "getRandomNumber",
      "outputs": [
        {
          "internalType": "bytes32",
          "name": "requestId",
          "type": "bytes32"
        }
      ],
      "stateMutability": "nonpayable",
      "type": "function"
    },
    {
      "inputs": [],
      "name": "lastGameId",
      "outputs": [
        {
          "internalType": "uint256",
          "name": "",
          "type": "uint256"
        }
      ],
      "stateMutability": "view",
      "type": "function"
    },
    {
      "inputs": [],
      "name": "randomResult",
      "outputs": [
        {
          "internalType": "uint256",
          "name": "",
          "type": "uint256"
        }
      ],
      "stateMutability": "view",
      "type": "function"
    },
    {
      "inputs": [
        {
          "internalType": "bytes32",
          "name": "requestId",
          "type": "bytes32"
        },
        {
          "internalType": "uint256",
          "name": "randomness",
          "type": "uint256"
        }
      ],
      "name": "rawFulfillRandomness",
      "outputs": [],
      "stateMutability": "nonpayable",
      "type": "function"
    },
    {
      "inputs": [
        {
          "internalType": "uint256",
          "name": "betType",
          "type": "uint256"
        },
        {
          "internalType": "uint256",
          "name": "betValue",
          "type": "uint256"
        }
      ],
      "name": "startGame",
      "outputs": [],
      "stateMutability": "payable",
      "type": "function"
    },
    {
      "inputs": [
        {
          "internalType": "uint256",
          "name": "amount",
          "type": "uint256"
        }
      ],
      "name": "withdrawEther",
      "outputs": [],
      "stateMutability": "payable",
      "type": "function"
    },
    {
      "inputs": [
        {
          "internalType": "uint256",
          "name": "amount",
          "type": "uint256"
        }
      ],
      "name": "withdrawLink",
      "outputs": [],
      "stateMutability": "nonpayable",
      "type": "function"
    },
    {
      "stateMutability": "payable",
      "type": "receive"
    }
  ],
  "bytecode": "0x60c06040523480156200001157600080fd5b5073b3dccb4cf7a26f6cf6b120cf5a73875b7bbc655b7301be23585060835e02b77ef475b0cc51aa1e07098173ffffffffffffffffffffffffffffffffffffffff1660a08173ffffffffffffffffffffffffffffffffffffffff1660601b815250508073ffffffffffffffffffffffffffffffffffffffff1660808173ffffffffffffffffffffffffffffffffffffffff1660601b8152505050507f2ed0feb3e7fd2022120aa84fab1945545a9f2ffc9076fd6156fa96eaff4c131160001b60018190555067016345785d8a000060028190555033600760006101000a81548173ffffffffffffffffffffffffffffffffffffffff021916908373ffffffffffffffffffffffffffffffffffffffff1602179055506040518060e00160405280600160ff168152602001600560ff168152602001600560ff168152602001600060ff168152602001600e60ff168152602001600560ff168152602001600d60ff16815250600b90600762000187929190620001f0565b506040518060e00160405280600260ff16815260200160b560ff168152602001600c60ff168152602001601f60ff168152602001600760ff168152602001600060ff168152602001600060ff16815250600c906007620001e9929190620001f0565b5062000266565b82805482825590600052602060002090810192821562000234579160200282015b8281111562000233578251829060ff1690559160200191906001019062000211565b5b50905062000243919062000247565b5090565b5b808211156200026257600081600090555060010162000248565b5090565b60805160601c60a05160601c612345620002a7600039600081816109a40152610ca80152600081816108b501528181610a4b0152610c6c01526123456000f3fe6080604052600436106100c65760003560e01c80636a7fbcf81161007f57806394985ddd1161005957806394985ddd1461029a578063d7c81b55146102c3578063dbdff2c1146102ee578063f851a440146103195761011b565b80636a7fbcf81461022a578063730b8381146102555780637a8042bd146102715761011b565b806305700d4614610120578063117a5b901461014b5780633bed33ce1461018d5780633ee9d648146101a957806342619f66146101d457806350fe51b2146101ff5761011b565b3661011b573373ffffffffffffffffffffffffffffffffffffffff167f88a5966d370b9919b20f3e2c13ff65706f196a4e32cc2c12bf57088f88525874346040516101119190611cf0565b60405180910390a2005b600080fd5b34801561012c57600080fd5b50610135610344565b6040516101429190611cf0565b60405180910390f35b34801561015757600080fd5b50610172600480360381019061016d919061187f565b61034a565b60405161018496959493929190611d0b565b60405180910390f35b6101a760048036038101906101a2919061187f565b6103a6565b005b3480156101b557600080fd5b506101be610540565b6040516101cb9190611cf0565b60405180910390f35b3480156101e057600080fd5b506101e9610546565b6040516101f69190611cf0565b60405180910390f35b34801561020b57600080fd5b5061021461054c565b6040516102219190611cf0565b60405180910390f35b34801561023657600080fd5b5061023f610552565b60405161024c9190611cf0565b60405180910390f35b61026f600480360381019061026a91906118d1565b610558565b005b34801561027d57600080fd5b506102986004803603810190610293919061187f565b610823565b005b3480156102a657600080fd5b506102c160048036038101906102bc9190611843565b6109a2565b005b3480156102cf57600080fd5b506102d8610a3e565b6040516102e59190611cf0565b60405180910390f35b3480156102fa57600080fd5b50610303610a44565b6040516103109190611b67565b60405180910390f35b34801561032557600080fd5b5061032e610b46565b60405161033b9190611ae5565b60405180910390f35b60065481565b600d6020528060005260406000206000915090508060000154908060010154908060020154908060030154908060040154908060050160009054906101000a900473ffffffffffffffffffffffffffffffffffffffff16905086565b600760009054906101000a900473ffffffffffffffffffffffffffffffffffffffff1673ffffffffffffffffffffffffffffffffffffffff163373ffffffffffffffffffffffffffffffffffffffff1614610436576040517f08c379a000000000000000000000000000000000000000000000000000000000815260040161042d90611cd0565b60405180910390fd5b80471015610479576040517f08c379a000000000000000000000000000000000000000000000000000000000815260040161047090611bf0565b60405180910390fd5b600760009054906101000a900473ffffffffffffffffffffffffffffffffffffffff1673ffffffffffffffffffffffffffffffffffffffff166108fc829081150290604051600060405180830381858888f193505050501580156104e1573d6000803e3d6000fd5b507f884edad9ce6fa2440d8a54cc123490eb96d2768479d49ff9c7366125a9424364600760009054906101000a900473ffffffffffffffffffffffffffffffffffffffff1682604051610535929190611b00565b60405180910390a150565b60095481565b60035481565b60045481565b60055481565b6000821015801561056a575060068211155b6105a9576040517f08c379a00000000000000000000000000000000000000000000000000000000081526004016105a090611c90565b60405180910390fd5b600081101580156105fe5750600b82815481106105ef577f4e487b7100000000000000000000000000000000000000000000000000000000600052603260045260246000fd5b90600052602060002001548111155b61063d576040517f08c379a000000000000000000000000000000000000000000000000000000000815260040161063490611c70565b60405180910390fd5b6000600c8381548110610679577f4e487b7100000000000000000000000000000000000000000000000000000000600052603260045260246000fd5b90600052602060002001549050600583141561069857600490506106a7565b60068314156106a657603d90505b5b600034826106b59190611eda565b9050600081600a546106c79190611e53565b905047811061070b576040517f08c379a000000000000000000000000000000000000000000000000000000000815260040161070290611c30565b60405180910390fd5b81600a600082825461071d9190611e53565b92505081905550600061072e610a44565b90506040518060c0016040528060085481526020018781526020018681526020018281526020013481526020013373ffffffffffffffffffffffffffffffffffffffff16815250600d60006008548152602001908152602001600020600082015181600001556020820151816001015560408201518160020155606082015181600301556080820151816004015560a08201518160050160006101000a81548173ffffffffffffffffffffffffffffffffffffffff021916908373ffffffffffffffffffffffffffffffffffffffff16021790555090505060016008546108159190611e53565b600881905550505050505050565b600760009054906101000a900473ffffffffffffffffffffffffffffffffffffffff1673ffffffffffffffffffffffffffffffffffffffff163373ffffffffffffffffffffffffffffffffffffffff16146108b3576040517f08c379a00000000000000000000000000000000000000000000000000000000081526004016108aa90611cd0565b60405180910390fd5b7f000000000000000000000000000000000000000000000000000000000000000073ffffffffffffffffffffffffffffffffffffffff1663a9059cbb33836040518363ffffffff1660e01b815260040161090e929190611b00565b602060405180830381600087803b15801561092857600080fd5b505af115801561093c573d6000803e3d6000fd5b505050506040513d601f19601f82011682018060405250810190610960919061181a565b61099f576040517f08c379a000000000000000000000000000000000000000000000000000000000815260040161099690611c50565b60405180910390fd5b50565b7f000000000000000000000000000000000000000000000000000000000000000073ffffffffffffffffffffffffffffffffffffffff163373ffffffffffffffffffffffffffffffffffffffff1614610a30576040517f08c379a0000000000000000000000000000000000000000000000000000000008152600401610a2790611cb0565b60405180910390fd5b610a3a8282610b6c565b5050565b60085481565b60006002547f000000000000000000000000000000000000000000000000000000000000000073ffffffffffffffffffffffffffffffffffffffff166370a08231306040518263ffffffff1660e01b8152600401610aa29190611ae5565b60206040518083038186803b158015610aba57600080fd5b505afa158015610ace573d6000803e3d6000fd5b505050506040513d601f19601f82011682018060405250810190610af291906118a8565b1015610b33576040517f08c379a0000000000000000000000000000000000000000000000000000000008152600401610b2a90611c10565b60405180910390fd5b610b41600154600254610c68565b905090565b600760009054906101000a900473ffffffffffffffffffffffffffffffffffffffff1681565b60006001600683610b7d919061204a565b610b879190611e53565b9050600060016006600a85610b9c9190611ea9565b610ba6919061204a565b610bb09190611e53565b9050600060016006606486610bc59190611ea9565b610bcf919061204a565b610bd99190611e53565b905082821015610c0e5781811015610bfc57600083905081935080915050610c09565b6000839050829350809250505b610c24565b82811015610c23576000819050839150809350505b5b81811015610c39576000819050829150809250505b82600481905550816005819055508060068190555083600381905550610c6185848484610dc7565b5050505050565b60007f000000000000000000000000000000000000000000000000000000000000000073ffffffffffffffffffffffffffffffffffffffff16634000aea07f000000000000000000000000000000000000000000000000000000000000000084866000604051602001610cdc929190611b82565b6040516020818303038152906040526040518463ffffffff1660e01b8152600401610d0993929190611b29565b602060405180830381600087803b158015610d2357600080fd5b505af1158015610d37573d6000803e3d6000fd5b505050506040513d601f19601f82011682018060405250810190610d5b919061181a565b506000610d7d8460003060008089815260200190815260200160002054611757565b9050600160008086815260200190815260200160002054610d9e9190611e53565b60008086815260200190815260200160002081905550610dbe8482611793565b91505092915050565b6000818385610dd69190611e53565b610de09190611e53565b9050600060095490505b60085481101561174657600080600c600d60008581526020019081526020016000206001015481548110610e47577f4e487b7100000000000000000000000000000000000000000000000000000000600052603260045260246000fd5b9060005260206000200154905087600d600085815260200190815260200160002060030154141561173157600080600d6000868152602001908152602001600020600101541415610f14576000600d6000868152602001908152602001600020600201541415610ed25760048510158015610ec35750600a8511155b15610ecd57600190505b610f0f565b6001600d6000868152602001908152602001600020600201541415610f0e57600a8510158015610f03575060118511155b15610f0d57600190505b5b5b611586565b6001600d6000868152602001908152602001600020600101541415610f7b578688148015610f4157508587145b15610f7657876001600d600087815260200190815260200160002060020154610f6a9190611e53565b1415610f7557600190505b5b611585565b6002600d60008681526020019081526020016000206001015414156110515786881415610fd657876001600d600087815260200190815260200160002060020154610fc69190611e53565b1415610fd157600190505b61104c565b8587141561101257866001600d6000878152602001908152602001600020600201546110029190611e53565b141561100d57600190505b61104b565b8588141561104a57876001600d60008781526020019081526020016000206002015461103e9190611e53565b141561104957600190505b5b5b5b611584565b6003600d600086815260200190815260200160002060010154141561108d57868814801561107e57508587145b1561108857600190505b611583565b6004600d6000868152602001908152602001600020600101541415611385576004600d6000868152602001908152602001600020600201541161114a576001881480156110fb57506002600d6000868152602001908152602001600020600201546110f89190611e53565b87145b156111095760019050611145565b60018714801561113a57506002600d6000868152602001908152602001600020600201546111379190611e53565b86145b1561114457600190505b5b611380565b6008600d600086815260200190815260200160002060020154116111e85760028814801561119957506002600d6000868152602001908152602001600020600201546111969190611f34565b87145b156111a757600190506111e3565b6002871480156111d857506002600d6000868152602001908152602001600020600201546111d59190611f34565b86145b156111e257600190505b5b61137f565b600b600d600086815260200190815260200160002060020154116112865760038814801561123757506005600d6000868152602001908152602001600020600201546112349190611f34565b87145b156112455760019050611281565b60038714801561127657506005600d6000868152602001908152602001600020600201546112739190611f34565b86145b1561128057600190505b5b61137e565b600d8060008681526020019081526020016000206002015411611323576004881480156112d457506007600d6000868152602001908152602001600020600201546112d19190611f34565b87145b156112e2576001905061131e565b60048714801561131357506007600d6000868152602001908152602001600020600201546113109190611f34565b86145b1561131d57600190505b5b61137d565b600e600d600086815260200190815260200160002060020154141561137c576005881480156113525750600687145b15611360576001905061137b565b6005871480156113705750600686145b1561137a57600190505b5b5b5b5b5b5b611582565b6005600d600086815260200190815260200160002060010154141561146457600191506001600d6000868152602001908152602001600020600201546113cb9190611e53565b8814156113e5576001905081806113e190611fed565b9250505b6001600d6000868152602001908152602001600020600201546114089190611e53565b8714156114225760019050818061141e90611fed565b9250505b6001600d6000868152602001908152602001600020600201546114459190611e53565b86141561145f5760019050818061145b90611fed565b9250505b611581565b6006600d600086815260200190815260200160002060010154141561158057846004600d6000878152602001908152602001600020600201546114a79190611e53565b141561157f576001905060048514806114c05750601185145b156114ce57603d915061157e565b60058514806114dd5750601085145b156114eb57601f915061157d565b60068514806114fa5750600f85145b15611508576013915061157c565b60078514806115175750600e85145b1561152557600d915061157b565b60088514806115345750600d85145b15611542576009915061157a565b60098514806115515750600c85145b1561155f5760089150611579565b600a85148061156e5750600b85145b1561157857600791505b5b5b5b5b5b5b5b5b5b5b5b5b5b5b801561162e57600d600085815260200190815260200160002060040154826115ae9190611eda565b9250600d600085815260200190815260200160002060050160009054906101000a900473ffffffffffffffffffffffffffffffffffffffff1673ffffffffffffffffffffffffffffffffffffffff166108fc849081150290604051600060405180830381858888f1935050505015801561162c573d6000803e3d6000fd5b505b6000600a819055507f8aca7109d552615ef8156ca972cb22e0d8725f3c2fd29f08ea69d8bde7b3667b600d600086815260200190815260200160002060000154600d600087815260200190815260200160002060010154600d600088815260200190815260200160002060020154600d600089815260200190815260200160002060030154600d60008a815260200190815260200160002060040154600d60008b815260200190815260200160002060050160009054906101000a900473ffffffffffffffffffffffffffffffffffffffff1689600354600454600554600654426040516117279c9b9a99989796959493929190611d6c565b60405180910390a1505b5050808061173e90611fed565b915050610dea565b506008546009819055505050505050565b6000848484846040516020016117709493929190611bab565b6040516020818303038152906040528051906020012060001c9050949350505050565b600082826040516020016117a8929190611ab9565b60405160208183030381529060405280519060200120905092915050565b6000815190506117d5816122ca565b92915050565b6000813590506117ea816122e1565b92915050565b6000813590506117ff816122f8565b92915050565b600081519050611814816122f8565b92915050565b60006020828403121561182c57600080fd5b600061183a848285016117c6565b91505092915050565b6000806040838503121561185657600080fd5b6000611864858286016117db565b9250506020611875858286016117f0565b9150509250929050565b60006020828403121561189157600080fd5b600061189f848285016117f0565b91505092915050565b6000602082840312156118ba57600080fd5b60006118c884828501611805565b91505092915050565b600080604083850312156118e457600080fd5b60006118f2858286016117f0565b9250506020611903858286016117f0565b9150509250929050565b61191681611f68565b82525050565b61192581611f86565b82525050565b61193c61193782611f86565b612036565b82525050565b600061194d82611e26565b6119578185611e31565b9350611967818560208601611fba565b611970816120d9565b840191505092915050565b6000611988602783611e42565b9150611993826120ea565b604082019050919050565b60006119ab602b83611e42565b91506119b682612139565b604082019050919050565b60006119ce601783611e42565b91506119d982612188565b602082019050919050565b60006119f1601983611e42565b91506119fc826121b1565b602082019050919050565b6000611a14601183611e42565b9150611a1f826121da565b602082019050919050565b6000611a37602583611e42565b9150611a4282612203565b604082019050919050565b6000611a5a601f83611e42565b9150611a6582612252565b602082019050919050565b6000611a7d602583611e42565b9150611a888261227b565b604082019050919050565b611a9c81611fb0565b82525050565b611ab3611aae82611fb0565b612040565b82525050565b6000611ac5828561192b565b602082019150611ad58284611aa2565b6020820191508190509392505050565b6000602082019050611afa600083018461190d565b92915050565b6000604082019050611b15600083018561190d565b611b226020830184611a93565b9392505050565b6000606082019050611b3e600083018661190d565b611b4b6020830185611a93565b8181036040830152611b5d8184611942565b9050949350505050565b6000602082019050611b7c600083018461191c565b92915050565b6000604082019050611b97600083018561191c565b611ba46020830184611a93565b9392505050565b6000608082019050611bc0600083018761191c565b611bcd6020830186611a93565b611bda604083018561190d565b611be76060830184611a93565b95945050505050565b60006020820190508181036000830152611c098161197b565b9050919050565b60006020820190508181036000830152611c298161199e565b9050919050565b60006020820190508181036000830152611c49816119c1565b9050919050565b60006020820190508181036000830152611c69816119e4565b9050919050565b60006020820190508181036000830152611c8981611a07565b9050919050565b60006020820190508181036000830152611ca981611a2a565b9050919050565b60006020820190508181036000830152611cc981611a4d565b9050919050565b60006020820190508181036000830152611ce981611a70565b9050919050565b6000602082019050611d056000830184611a93565b92915050565b600060c082019050611d206000830189611a93565b611d2d6020830188611a93565b611d3a6040830187611a93565b611d47606083018661191c565b611d546080830185611a93565b611d6160a083018461190d565b979650505050505050565b600061018082019050611d82600083018f611a93565b611d8f602083018e611a93565b611d9c604083018d611a93565b611da9606083018c61191c565b611db6608083018b611a93565b611dc360a083018a61190d565b611dd060c0830189611a93565b611ddd60e0830188611a93565b611deb610100830187611a93565b611df9610120830186611a93565b611e07610140830185611a93565b611e15610160830184611a93565b9d9c50505050505050505050505050565b600081519050919050565b600082825260208201905092915050565b600082825260208201905092915050565b6000611e5e82611fb0565b9150611e6983611fb0565b9250827fffffffffffffffffffffffffffffffffffffffffffffffffffffffffffffffff03821115611e9e57611e9d61207b565b5b828201905092915050565b6000611eb482611fb0565b9150611ebf83611fb0565b925082611ecf57611ece6120aa565b5b828204905092915050565b6000611ee582611fb0565b9150611ef083611fb0565b9250817fffffffffffffffffffffffffffffffffffffffffffffffffffffffffffffffff0483118215151615611f2957611f2861207b565b5b828202905092915050565b6000611f3f82611fb0565b9150611f4a83611fb0565b925082821015611f5d57611f5c61207b565b5b828203905092915050565b6000611f7382611f90565b9050919050565b60008115159050919050565b6000819050919050565b600073ffffffffffffffffffffffffffffffffffffffff82169050919050565b6000819050919050565b60005b83811015611fd8578082015181840152602081019050611fbd565b83811115611fe7576000848401525b50505050565b6000611ff882611fb0565b91507fffffffffffffffffffffffffffffffffffffffffffffffffffffffffffffffff82141561202b5761202a61207b565b5b600182019050919050565b6000819050919050565b6000819050919050565b600061205582611fb0565b915061206083611fb0565b9250826120705761206f6120aa565b5b828206905092915050565b7f4e487b7100000000000000000000000000000000000000000000000000000000600052601160045260246000fd5b7f4e487b7100000000000000000000000000000000000000000000000000000000600052601260045260246000fd5b6000601f19601f8301169050919050565b7f4572726f722c20636f6e74726163742068617320696e737566666963656e742060008201527f62616c616e636500000000000000000000000000000000000000000000000000602082015250565b7f4e6f7420656e6f756768204c494e4b202d2066696c6c20636f6e74726163742060008201527f7769746820666175636574000000000000000000000000000000000000000000602082015250565b7f496e737566666963656e74207661756c742066756e6473000000000000000000600082015250565b7f4572726f722c20756e61626c6520746f207472616e7366657200000000000000600082015250565b7f496e76616c6964206265742076616c7565000000000000000000000000000000600082015250565b7f426574206d757374206265206265747765656e203020616e64203620696e636c60008201527f7573697665000000000000000000000000000000000000000000000000000000602082015250565b7f4f6e6c7920565246436f6f7264696e61746f722063616e2066756c66696c6c00600082015250565b7f4f6e6c79207468652041646d696e2063616e2063616c6c20746869732066756e60008201527f6374696f6e000000000000000000000000000000000000000000000000000000602082015250565b6122d381611f7a565b81146122de57600080fd5b50565b6122ea81611f86565b81146122f557600080fd5b50565b61230181611fb0565b811461230c57600080fd5b5056fea26469706673582212208219515322478b393deaeae95b72412c720f78d9efb85d706b24df53444fd61464736f6c63430008040033",
  "linkReferences": {},
  "deployedLinkReferences": {}
}